{
  "_format": "hh-sol-artifact-1",
  "contractName": "ReadifySubmissionManager",
  "sourceName": "contracts/ReadifySubmissionManager.sol",
  "abi": [
    {
      "inputs": [
        {
          "internalType": "address",
          "name": "_tokenAddress",
          "type": "address"
        }
      ],
      "stateMutability": "nonpayable",
      "type": "constructor"
    },
    {
      "inputs": [],
      "name": "AccessControlBadConfirmation",
      "type": "error"
    },
    {
      "inputs": [
        {
          "internalType": "address",
          "name": "account",
          "type": "address"
        },
        {
          "internalType": "bytes32",
          "name": "neededRole",
          "type": "bytes32"
        }
      ],
      "name": "AccessControlUnauthorizedAccount",
      "type": "error"
    },
    {
      "anonymous": false,
      "inputs": [
        {
          "indexed": true,
          "internalType": "bytes32",
          "name": "role",
          "type": "bytes32"
        },
        {
          "indexed": true,
          "internalType": "bytes32",
          "name": "previousAdminRole",
          "type": "bytes32"
        },
        {
          "indexed": true,
          "internalType": "bytes32",
          "name": "newAdminRole",
          "type": "bytes32"
        }
      ],
      "name": "RoleAdminChanged",
      "type": "event"
    },
    {
      "anonymous": false,
      "inputs": [
        {
          "indexed": true,
          "internalType": "bytes32",
          "name": "role",
          "type": "bytes32"
        },
        {
          "indexed": true,
          "internalType": "address",
          "name": "account",
          "type": "address"
        },
        {
          "indexed": true,
          "internalType": "address",
          "name": "sender",
          "type": "address"
        }
      ],
      "name": "RoleGranted",
      "type": "event"
    },
    {
      "anonymous": false,
      "inputs": [
        {
          "indexed": true,
          "internalType": "bytes32",
          "name": "role",
          "type": "bytes32"
        },
        {
          "indexed": true,
          "internalType": "address",
          "name": "account",
          "type": "address"
        },
        {
          "indexed": true,
          "internalType": "address",
          "name": "sender",
          "type": "address"
        }
      ],
      "name": "RoleRevoked",
      "type": "event"
    },
    {
      "anonymous": false,
      "inputs": [
        {
          "indexed": true,
          "internalType": "address",
          "name": "student",
          "type": "address"
        },
        {
          "indexed": false,
          "internalType": "uint256",
          "name": "index",
          "type": "uint256"
        }
      ],
      "name": "SummaryApproved",
      "type": "event"
    },
    {
      "anonymous": false,
      "inputs": [
        {
          "indexed": true,
          "internalType": "address",
          "name": "student",
          "type": "address"
        },
        {
          "indexed": false,
          "internalType": "string",
          "name": "bookTitle",
          "type": "string"
        },
        {
          "indexed": false,
          "internalType": "uint256",
          "name": "index",
          "type": "uint256"
        }
      ],
      "name": "SummarySubmitted",
      "type": "event"
    },
    {
      "anonymous": false,
      "inputs": [
        {
          "indexed": true,
          "internalType": "address",
          "name": "student",
          "type": "address"
        },
        {
          "indexed": false,
          "internalType": "string",
          "name": "bookTitle",
          "type": "string"
        },
        {
          "indexed": false,
          "internalType": "uint256",
          "name": "tokens",
          "type": "uint256"
        }
      ],
      "name": "TokensIssued",
      "type": "event"
    },
    {
      "inputs": [],
      "name": "DEFAULT_ADMIN_ROLE",
      "outputs": [
        {
          "internalType": "bytes32",
          "name": "",
          "type": "bytes32"
        }
      ],
      "stateMutability": "view",
      "type": "function"
    },
    {
      "inputs": [],
      "name": "TEACHER_ROLE",
      "outputs": [
        {
          "internalType": "bytes32",
          "name": "",
          "type": "bytes32"
        }
      ],
      "stateMutability": "view",
      "type": "function"
    },
    {
      "inputs": [
        {
          "internalType": "address",
          "name": "account",
          "type": "address"
        }
      ],
      "name": "addTeacher",
      "outputs": [],
      "stateMutability": "nonpayable",
      "type": "function"
    },
    {
      "inputs": [
        {
          "internalType": "address",
          "name": "student",
          "type": "address"
        },
        {
          "internalType": "uint256",
          "name": "index",
          "type": "uint256"
        }
      ],
      "name": "approveAndReward",
      "outputs": [],
      "stateMutability": "nonpayable",
      "type": "function"
    },
    {
      "inputs": [
        {
          "internalType": "bytes32",
          "name": "role",
          "type": "bytes32"
        }
      ],
      "name": "getRoleAdmin",
      "outputs": [
        {
          "internalType": "bytes32",
          "name": "",
          "type": "bytes32"
        }
      ],
      "stateMutability": "view",
      "type": "function"
    },
    {
      "inputs": [
        {
          "internalType": "bytes32",
          "name": "role",
          "type": "bytes32"
        },
        {
          "internalType": "address",
          "name": "account",
          "type": "address"
        }
      ],
      "name": "grantRole",
      "outputs": [],
      "stateMutability": "nonpayable",
      "type": "function"
    },
    {
      "inputs": [
        {
          "internalType": "bytes32",
          "name": "role",
          "type": "bytes32"
        },
        {
          "internalType": "address",
          "name": "account",
          "type": "address"
        }
      ],
      "name": "hasRole",
      "outputs": [
        {
          "internalType": "bool",
          "name": "",
          "type": "bool"
        }
      ],
      "stateMutability": "view",
      "type": "function"
    },
    {
      "inputs": [
        {
          "internalType": "address",
          "name": "account",
          "type": "address"
        }
      ],
      "name": "isTeacher",
      "outputs": [
        {
          "internalType": "bool",
          "name": "",
          "type": "bool"
        }
      ],
      "stateMutability": "view",
      "type": "function"
    },
    {
      "inputs": [
        {
          "internalType": "address",
          "name": "",
          "type": "address"
        },
        {
          "internalType": "uint256",
          "name": "",
          "type": "uint256"
        }
      ],
      "name": "readerSubmissions",
      "outputs": [
        {
          "internalType": "string",
          "name": "readerName",
          "type": "string"
        },
        {
          "internalType": "string",
          "name": "bookTitle",
          "type": "string"
        },
        {
          "internalType": "string",
          "name": "summaryHash",
          "type": "string"
        },
        {
          "internalType": "uint256",
          "name": "duration",
          "type": "uint256"
        },
        {
          "internalType": "uint256",
          "name": "timestamp",
          "type": "uint256"
        },
        {
          "internalType": "address",
          "name": "readerWallet",
          "type": "address"
        },
        {
          "internalType": "bool",
          "name": "approved",
          "type": "bool"
        },
        {
          "internalType": "bool",
          "name": "rewarded",
          "type": "bool"
        }
      ],
      "stateMutability": "view",
      "type": "function"
    },
    {
      "inputs": [
        {
          "internalType": "address",
          "name": "account",
          "type": "address"
        }
      ],
      "name": "removeTeacher",
      "outputs": [],
      "stateMutability": "nonpayable",
      "type": "function"
    },
    {
      "inputs": [
        {
          "internalType": "bytes32",
          "name": "role",
          "type": "bytes32"
        },
        {
          "internalType": "address",
          "name": "callerConfirmation",
          "type": "address"
        }
      ],
      "name": "renounceRole",
      "outputs": [],
      "stateMutability": "nonpayable",
      "type": "function"
    },
    {
      "inputs": [
        {
          "internalType": "bytes32",
          "name": "role",
          "type": "bytes32"
        },
        {
          "internalType": "address",
          "name": "account",
          "type": "address"
        }
      ],
      "name": "revokeRole",
      "outputs": [],
      "stateMutability": "nonpayable",
      "type": "function"
    },
    {
      "inputs": [
        {
          "internalType": "string",
          "name": "_readerName",
          "type": "string"
        },
        {
          "internalType": "string",
          "name": "_bookTitle",
          "type": "string"
        },
        {
          "internalType": "string",
          "name": "_summaryHash",
          "type": "string"
        },
        {
          "internalType": "uint256",
          "name": "_duration",
          "type": "uint256"
        }
      ],
      "name": "submitSummary",
      "outputs": [],
      "stateMutability": "nonpayable",
      "type": "function"
    },
    {
      "inputs": [
        {
          "internalType": "bytes4",
          "name": "interfaceId",
          "type": "bytes4"
        }
      ],
      "name": "supportsInterface",
      "outputs": [
        {
          "internalType": "bool",
          "name": "",
          "type": "bool"
        }
      ],
      "stateMutability": "view",
      "type": "function"
    },
    {
      "inputs": [],
      "name": "token",
      "outputs": [
        {
          "internalType": "contract IRewardToken",
          "name": "",
          "type": "address"
        }
      ],
      "stateMutability": "view",
      "type": "function"
    }
  ],
  "bytecode": "0x608060405234801561001057600080fd5b506040516122d33803806122d383398181016040528101906100329190610290565b6100456000801b336100be60201b60201c565b506100767fd16e204b8a42a15ab0ea6bb8ec1ecdfbe69f38074fc865323af19efe7d9573d9336100be60201b60201c565b5080600160006101000a81548173ffffffffffffffffffffffffffffffffffffffff021916908373ffffffffffffffffffffffffffffffffffffffff160217905550506102bd565b60006100d083836101bb60201b60201c565b6101b057600160008085815260200190815260200160002060000160008473ffffffffffffffffffffffffffffffffffffffff1673ffffffffffffffffffffffffffffffffffffffff16815260200190815260200160002060006101000a81548160ff02191690831515021790555061014d61022560201b60201c565b73ffffffffffffffffffffffffffffffffffffffff168273ffffffffffffffffffffffffffffffffffffffff16847f2f8788117e7eff1d82e926ec794901d17c78024a50270940304540a733656f0d60405160405180910390a4600190506101b5565b600090505b92915050565b600080600084815260200190815260200160002060000160008373ffffffffffffffffffffffffffffffffffffffff1673ffffffffffffffffffffffffffffffffffffffff16815260200190815260200160002060009054906101000a900460ff16905092915050565b600033905090565b600080fd5b600073ffffffffffffffffffffffffffffffffffffffff82169050919050565b600061025d82610232565b9050919050565b61026d81610252565b811461027857600080fd5b50565b60008151905061028a81610264565b92915050565b6000602082840312156102a6576102a561022d565b5b60006102b48482850161027b565b91505092915050565b612007806102cc6000396000f3fe608060405234801561001057600080fd5b50600436106100f55760003560e01c806386e5c15a11610097578063aec37eb311610066578063aec37eb314610289578063d547741f146102b9578063fc0c546a146102d5578063ff103e87146102f3576100f5565b806386e5c15a146101e657806391d1485414610204578063a217fddf14610234578063aa89141414610252576100f5565b806336568abe116100d357806336568abe146101765780633bc6e3091461019257806352ff6846146101ae57806376dbffbc146101ca576100f5565b806301ffc9a7146100fa578063248a9ca31461012a5780632f2ff15d1461015a575b600080fd5b610114600480360381019061010f9190611208565b61030f565b6040516101219190611250565b60405180910390f35b610144600480360381019061013f91906112a1565b610389565b60405161015191906112dd565b60405180910390f35b610174600480360381019061016f9190611356565b6103a8565b005b610190600480360381019061018b9190611356565b6103ca565b005b6101ac60048036038101906101a79190611396565b610445565b005b6101c860048036038101906101c39190611396565b610480565b005b6101e460048036038101906101df91906113f9565b6104bb565b005b6101ee610845565b6040516101fb91906112dd565b60405180910390f35b61021e60048036038101906102199190611356565b610869565b60405161022b9190611250565b60405180910390f35b61023c6108d3565b60405161024991906112dd565b60405180910390f35b61026c600480360381019061026791906113f9565b6108da565b6040516102809897969594939291906114e7565b60405180910390f35b6102a3600480360381019061029e9190611396565b610b11565b6040516102b09190611250565b60405180910390f35b6102d360048036038101906102ce9190611356565b610b44565b005b6102dd610b66565b6040516102ea91906115d9565b60405180910390f35b61030d60048036038101906103089190611729565b610b8c565b005b60007f7965db0b000000000000000000000000000000000000000000000000000000007bffffffffffffffffffffffffffffffffffffffffffffffffffffffff1916827bffffffffffffffffffffffffffffffffffffffffffffffffffffffff19161480610382575061038182610ee2565b5b9050919050565b6000806000838152602001908152602001600020600101549050919050565b6103b182610389565b6103ba81610f4c565b6103c48383610f60565b50505050565b6103d2611051565b73ffffffffffffffffffffffffffffffffffffffff168173ffffffffffffffffffffffffffffffffffffffff1614610436576040517f6697b23200000000000000000000000000000000000000000000000000000000815260040160405180910390fd5b6104408282611059565b505050565b6000801b61045281610f4c565b61047c7fd16e204b8a42a15ab0ea6bb8ec1ecdfbe69f38074fc865323af19efe7d9573d9836103a8565b5050565b6000801b61048d81610f4c565b6104b77fd16e204b8a42a15ab0ea6bb8ec1ecdfbe69f38074fc865323af19efe7d9573d983610b44565b5050565b7fd16e204b8a42a15ab0ea6bb8ec1ecdfbe69f38074fc865323af19efe7d9573d96104e581610f4c565b600260008473ffffffffffffffffffffffffffffffffffffffff1673ffffffffffffffffffffffffffffffffffffffff168152602001908152602001600020805490508210610569576040517f08c379a000000000000000000000000000000000000000000000000000000000815260040161056090611830565b60405180910390fd5b6000600260008573ffffffffffffffffffffffffffffffffffffffff1673ffffffffffffffffffffffffffffffffffffffff16815260200190815260200160002083815481106105bc576105bb611850565b5b906000526020600020906006020190508060050160149054906101000a900460ff161561061e576040517f08c379a0000000000000000000000000000000000000000000000000000000008152600401610615906118cb565b60405180910390fd5b8060050160159054906101000a900460ff1615610670576040517f08c379a000000000000000000000000000000000000000000000000000000000815260040161066790611937565b60405180910390fd5b60018160050160146101000a81548160ff02191690831515021790555060018160050160156101000a81548160ff0219169083151502179055506000670de0b6b3a764000082600301546106c49190611986565b9050600160009054906101000a900473ffffffffffffffffffffffffffffffffffffffff1673ffffffffffffffffffffffffffffffffffffffff166340c10f198360050160009054906101000a900473ffffffffffffffffffffffffffffffffffffffff16836040518363ffffffff1660e01b81526004016107479291906119c8565b600060405180830381600087803b15801561076157600080fd5b505af1158015610775573d6000803e3d6000fd5b505050508473ffffffffffffffffffffffffffffffffffffffff167f13be376fbad8c7c473127c3e2ae63741561f82ec8349507aa94c71f031a4431a856040516107bf91906119f1565b60405180910390a28160050160009054906101000a900473ffffffffffffffffffffffffffffffffffffffff1673ffffffffffffffffffffffffffffffffffffffff167f14e666e9a0d37171ff1147bbb180d5b918d45086906791ef4a98895516d1a6238360010183604051610836929190611b05565b60405180910390a25050505050565b7fd16e204b8a42a15ab0ea6bb8ec1ecdfbe69f38074fc865323af19efe7d9573d981565b600080600084815260200190815260200160002060000160008373ffffffffffffffffffffffffffffffffffffffff1673ffffffffffffffffffffffffffffffffffffffff16815260200190815260200160002060009054906101000a900460ff16905092915050565b6000801b81565b600260205281600052604060002081815481106108f657600080fd5b90600052602060002090600602016000915091505080600001805461091a90611a3b565b80601f016020809104026020016040519081016040528092919081815260200182805461094690611a3b565b80156109935780601f1061096857610100808354040283529160200191610993565b820191906000526020600020905b81548152906001019060200180831161097657829003601f168201915b5050505050908060010180546109a890611a3b565b80601f01602080910402602001604051908101604052809291908181526020018280546109d490611a3b565b8015610a215780601f106109f657610100808354040283529160200191610a21565b820191906000526020600020905b815481529060010190602001808311610a0457829003601f168201915b505050505090806002018054610a3690611a3b565b80601f0160208091040260200160405190810160405280929190818152602001828054610a6290611a3b565b8015610aaf5780601f10610a8457610100808354040283529160200191610aaf565b820191906000526020600020905b815481529060010190602001808311610a9257829003601f168201915b5050505050908060030154908060040154908060050160009054906101000a900473ffffffffffffffffffffffffffffffffffffffff16908060050160149054906101000a900460ff16908060050160159054906101000a900460ff16905088565b6000610b3d7fd16e204b8a42a15ab0ea6bb8ec1ecdfbe69f38074fc865323af19efe7d9573d983610869565b9050919050565b610b4d82610389565b610b5681610f4c565b610b608383611059565b50505050565b600160009054906101000a900473ffffffffffffffffffffffffffffffffffffffff1681565b6000845111610bd0576040517f08c379a0000000000000000000000000000000000000000000000000000000008152600401610bc790611b81565b60405180910390fd5b6000835111610c14576040517f08c379a0000000000000000000000000000000000000000000000000000000008152600401610c0b90611bed565b60405180910390fd5b6000825111610c58576040517f08c379a0000000000000000000000000000000000000000000000000000000008152600401610c4f90611c59565b60405180910390fd5b60008111610c9b576040517f08c379a0000000000000000000000000000000000000000000000000000000008152600401610c9290611cc5565b60405180910390fd5b60006040518061010001604052808681526020018581526020018481526020018381526020014281526020013373ffffffffffffffffffffffffffffffffffffffff168152602001600015158152602001600015158152509050600260003373ffffffffffffffffffffffffffffffffffffffff1673ffffffffffffffffffffffffffffffffffffffff1681526020019081526020016000208190806001815401808255809150506001900390600052602060002090600602016000909190919091506000820151816000019081610d739190611e72565b506020820151816001019081610d899190611e72565b506040820151816002019081610d9f9190611e72565b50606082015181600301556080820151816004015560a08201518160050160006101000a81548173ffffffffffffffffffffffffffffffffffffffff021916908373ffffffffffffffffffffffffffffffffffffffff16021790555060c08201518160050160146101000a81548160ff02191690831515021790555060e08201518160050160156101000a81548160ff02191690831515021790555050503373ffffffffffffffffffffffffffffffffffffffff167f0fbca1de37ef7dc34800a81616174caf6a1fc4b0722864288f600f3fbce60026856001600260003373ffffffffffffffffffffffffffffffffffffffff1673ffffffffffffffffffffffffffffffffffffffff16815260200190815260200160002080549050610ec59190611f44565b604051610ed3929190611f78565b60405180910390a25050505050565b60007f01ffc9a7000000000000000000000000000000000000000000000000000000007bffffffffffffffffffffffffffffffffffffffffffffffffffffffff1916827bffffffffffffffffffffffffffffffffffffffffffffffffffffffff1916149050919050565b610f5d81610f58611051565b61114b565b50565b6000610f6c8383610869565b61104657600160008085815260200190815260200160002060000160008473ffffffffffffffffffffffffffffffffffffffff1673ffffffffffffffffffffffffffffffffffffffff16815260200190815260200160002060006101000a81548160ff021916908315150217905550610fe3611051565b73ffffffffffffffffffffffffffffffffffffffff168273ffffffffffffffffffffffffffffffffffffffff16847f2f8788117e7eff1d82e926ec794901d17c78024a50270940304540a733656f0d60405160405180910390a46001905061104b565b600090505b92915050565b600033905090565b60006110658383610869565b1561114057600080600085815260200190815260200160002060000160008473ffffffffffffffffffffffffffffffffffffffff1673ffffffffffffffffffffffffffffffffffffffff16815260200190815260200160002060006101000a81548160ff0219169083151502179055506110dd611051565b73ffffffffffffffffffffffffffffffffffffffff168273ffffffffffffffffffffffffffffffffffffffff16847ff6391f5c32d9c69d2a47ea670b442974b53935d1edc7fd64eb21e047a839171b60405160405180910390a460019050611145565b600090505b92915050565b6111558282610869565b6111985780826040517fe2517d3f00000000000000000000000000000000000000000000000000000000815260040161118f929190611fa8565b60405180910390fd5b5050565b6000604051905090565b600080fd5b600080fd5b60007fffffffff0000000000000000000000000000000000000000000000000000000082169050919050565b6111e5816111b0565b81146111f057600080fd5b50565b600081359050611202816111dc565b92915050565b60006020828403121561121e5761121d6111a6565b5b600061122c848285016111f3565b91505092915050565b60008115159050919050565b61124a81611235565b82525050565b60006020820190506112656000830184611241565b92915050565b6000819050919050565b61127e8161126b565b811461128957600080fd5b50565b60008135905061129b81611275565b92915050565b6000602082840312156112b7576112b66111a6565b5b60006112c58482850161128c565b91505092915050565b6112d78161126b565b82525050565b60006020820190506112f260008301846112ce565b92915050565b600073ffffffffffffffffffffffffffffffffffffffff82169050919050565b6000611323826112f8565b9050919050565b61133381611318565b811461133e57600080fd5b50565b6000813590506113508161132a565b92915050565b6000806040838503121561136d5761136c6111a6565b5b600061137b8582860161128c565b925050602061138c85828601611341565b9150509250929050565b6000602082840312156113ac576113ab6111a6565b5b60006113ba84828501611341565b91505092915050565b6000819050919050565b6113d6816113c3565b81146113e157600080fd5b50565b6000813590506113f3816113cd565b92915050565b600080604083850312156114105761140f6111a6565b5b600061141e85828601611341565b925050602061142f858286016113e4565b9150509250929050565b600081519050919050565b600082825260208201905092915050565b60005b83811015611473578082015181840152602081019050611458565b60008484015250505050565b6000601f19601f8301169050919050565b600061149b82611439565b6114a58185611444565b93506114b5818560208601611455565b6114be8161147f565b840191505092915050565b6114d2816113c3565b82525050565b6114e181611318565b82525050565b6000610100820190508181036000830152611502818b611490565b90508181036020830152611516818a611490565b9050818103604083015261152a8189611490565b905061153960608301886114c9565b61154660808301876114c9565b61155360a08301866114d8565b61156060c0830185611241565b61156d60e0830184611241565b9998505050505050505050565b6000819050919050565b600061159f61159a611595846112f8565b61157a565b6112f8565b9050919050565b60006115b182611584565b9050919050565b60006115c3826115a6565b9050919050565b6115d3816115b8565b82525050565b60006020820190506115ee60008301846115ca565b92915050565b600080fd5b600080fd5b7f4e487b7100000000000000000000000000000000000000000000000000000000600052604160045260246000fd5b6116368261147f565b810181811067ffffffffffffffff82111715611655576116546115fe565b5b80604052505050565b600061166861119c565b9050611674828261162d565b919050565b600067ffffffffffffffff821115611694576116936115fe565b5b61169d8261147f565b9050602081019050919050565b82818337600083830152505050565b60006116cc6116c784611679565b61165e565b9050828152602081018484840111156116e8576116e76115f9565b5b6116f38482856116aa565b509392505050565b600082601f8301126117105761170f6115f4565b5b81356117208482602086016116b9565b91505092915050565b60008060008060808587031215611743576117426111a6565b5b600085013567ffffffffffffffff811115611761576117606111ab565b5b61176d878288016116fb565b945050602085013567ffffffffffffffff81111561178e5761178d6111ab565b5b61179a878288016116fb565b935050604085013567ffffffffffffffff8111156117bb576117ba6111ab565b5b6117c7878288016116fb565b92505060606117d8878288016113e4565b91505092959194509250565b7f496e76616c696420696e64657800000000000000000000000000000000000000600082015250565b600061181a600d83611444565b9150611825826117e4565b602082019050919050565b600060208201905081810360008301526118498161180d565b9050919050565b7f4e487b7100000000000000000000000000000000000000000000000000000000600052603260045260246000fd5b7f416c726561647920617070726f76656400000000000000000000000000000000600082015250565b60006118b5601083611444565b91506118c08261187f565b602082019050919050565b600060208201905081810360008301526118e4816118a8565b9050919050565b7f416c726561647920726577617264656400000000000000000000000000000000600082015250565b6000611921601083611444565b915061192c826118eb565b602082019050919050565b6000602082019050818103600083015261195081611914565b9050919050565b7f4e487b7100000000000000000000000000000000000000000000000000000000600052601160045260246000fd5b6000611991826113c3565b915061199c836113c3565b92508282026119aa816113c3565b915082820484148315176119c1576119c0611957565b5b5092915050565b60006040820190506119dd60008301856114d8565b6119ea60208301846114c9565b9392505050565b6000602082019050611a0660008301846114c9565b92915050565b7f4e487b7100000000000000000000000000000000000000000000000000000000600052602260045260246000fd5b60006002820490506001821680611a5357607f821691505b602082108103611a6657611a65611a0c565b5b50919050565b60008190508160005260206000209050919050565b60008154611a8e81611a3b565b611a988186611444565b94506001821660008114611ab35760018114611ac957611afc565b60ff198316865281151560200286019350611afc565b611ad285611a6c565b60005b83811015611af457815481890152600182019150602081019050611ad5565b808801955050505b50505092915050565b60006040820190508181036000830152611b1f8185611a81565b9050611b2e60208301846114c9565b9392505050565b7f4e616d6520726571756972656400000000000000000000000000000000000000600082015250565b6000611b6b600d83611444565b9150611b7682611b35565b602082019050919050565b60006020820190508181036000830152611b9a81611b5e565b9050919050565b7f5469746c65207265717569726564000000000000000000000000000000000000600082015250565b6000611bd7600e83611444565b9150611be282611ba1565b602082019050919050565b60006020820190508181036000830152611c0681611bca565b9050919050565b7f4861736820726571756972656400000000000000000000000000000000000000600082015250565b6000611c43600d83611444565b9150611c4e82611c0d565b602082019050919050565b60006020820190508181036000830152611c7281611c36565b9050919050565b7f4475726174696f6e206d757374206265203e2030000000000000000000000000600082015250565b6000611caf601483611444565b9150611cba82611c79565b602082019050919050565b60006020820190508181036000830152611cde81611ca2565b9050919050565b60006020601f8301049050919050565b600082821b905092915050565b600060088302611d327fffffffffffffffffffffffffffffffffffffffffffffffffffffffffffffffff82611cf5565b611d3c8683611cf5565b95508019841693508086168417925050509392505050565b6000611d6f611d6a611d65846113c3565b61157a565b6113c3565b9050919050565b6000819050919050565b611d8983611d54565b611d9d611d9582611d76565b848454611d02565b825550505050565b600090565b611db2611da5565b611dbd818484611d80565b505050565b5b81811015611de157611dd6600082611daa565b600181019050611dc3565b5050565b601f821115611e2657611df781611a6c565b611e0084611ce5565b81016020851015611e0f578190505b611e23611e1b85611ce5565b830182611dc2565b50505b505050565b600082821c905092915050565b6000611e4960001984600802611e2b565b1980831691505092915050565b6000611e628383611e38565b9150826002028217905092915050565b611e7b82611439565b67ffffffffffffffff811115611e9457611e936115fe565b5b611e9e8254611a3b565b611ea9828285611de5565b600060209050601f831160018114611edc5760008415611eca578287015190505b611ed48582611e56565b865550611f3c565b601f198416611eea86611a6c565b60005b82811015611f1257848901518255600182019150602085019450602081019050611eed565b86831015611f2f5784890151611f2b601f891682611e38565b8355505b6001600288020188555050505b505050505050565b6000611f4f826113c3565b9150611f5a836113c3565b9250828203905081811115611f7257611f71611957565b5b92915050565b60006040820190508181036000830152611f928185611490565b9050611fa160208301846114c9565b9392505050565b6000604082019050611fbd60008301856114d8565b611fca60208301846112ce565b939250505056fea2646970667358221220f27ff499d438221bf9bebdf32612115b2750b51823bd3ec8f71b94bf7a29627864736f6c634300081c0033",
  "linkReferences": {},
  "deployedLinkReferences": {}
}